:020000040800F2
:10000000FCFF0020B1250000A9250000A925000063
:10001000A9250000A9250000A9250000A9250000A8
:10002000A9250000A9250000A9250000A925000098
:10003000A9250000A9250000A9250000A925000088
:10004000A9250000A9250000A9250000A925000078
:10005000A9250000A9250000A9250000A925000068
:10006000A9250000A9250000A9250000A925000058
:10007000A9250000A9250000A9250000A925000048
:10008000A9250000A9250000A9250000A925000038
:10009000A9250000A9250000A9250000A925000028
:1000A000A9250000A9250000A9250000A925000018
:1000B000A9250000A9250000A9250000A925000008
:1000C000A9250000A9250000A9250000A9250000F8
:1000D000A9250000A9250000A9250000A9250000E8
:1000E000A9250000A9250000A9250000A9250000D8
:1000F000A9250000A9250000A9250000A9250000C8
:10010000A9250000A9250000A9250000A9250000B7
:10011000A9250000A9250000A9250000A9250000A7
:10012000A9250000A9250000A9250000A925000097
:10013000A9250000A9250000A9250000A925000087
:10014000A9250000A9250000A9250000A925000077
:1001500081B000F218010A68C2F3400181F0010188
:10016000C9B2C8B201B0704783B0CDF800E000F06A
:10017000FF031A09104603F00F02134614E0194A50
:1001800002921FE0184A02921CE0184A029219E0FB
:10019000174A029216E0174A029213E0164A029298
:1001A00010E0164A02920DE00028E8D00128E9D0BC
:1001B0000228EAD00328EBD00428ECD00528EDD0A3
:1001C0000628EED0012212B29A40ADF8042002981F
:1001D0000A46BDF8041000F089FFDDF800E003B026
:1001E000704700BF00080140000C014000100140B2
:1001F0000014014000180140001C01400020014093
:1002000081B000F214010A6800F2180109680904BB
:1002100042EA0101084601B07047FFFF014800684B
:10022000704700BF1401002001490860704700BFFB
:10023000A481224201490860704700BFA881224280
:1002400001490860704700BFA0812242014908604F
:10025000704700BF9C81214201490860704700BF80
:100260009881214201490860704700BFB481224251
:1002700001490860704700BF8801224201490860B7
:10028000704700BF9001214201490860704700BFDC
:10029000A801224201490860704700BF8001214245
:1002A00001490860704700BFB0012242014908605F
:1002B000704700BFAC01224201490860704700BF8F
:1002C0009481224201490860704700BF9881224210
:1002D00001490860704700BFB081224201490860AF
:1002E000704700BF9881214281B0CDF800E00B46F5
:1002F000FFF786FF00EA03029A4240F2000200D1B3
:100300000122D0B2DDF800E001B0704781B0CDF835
:1003100000E04FF000021949884207D118490B68E4
:1003200018490A6818490A601C460BE017498842B8
:1003300007D117490B6817490A6813490A601C4618
:1003400000E0144614490C6003461846FFF700FF0E
:1003500070B91149096851B12CB905200A4C2468BB
:10036000A047002005E0611E08460446FFE7ECE7D1
:100370000120DDF800E001B0704700BF00540040EC
:10038000B40000201C01002018010020005800408B
:10039000B800002020010020BC00002001490860B6
:1003A000704700BF9C81214201490860704700BF2F
:1003B000B881224201490860704700BF8C01224287
:1003C00001490860704700BF94012142014908605B
:1003D000704700BFA801224201490860704700BF72
:1003E000B081224201490860704700BFB00122423B
:1003F00001490860704700BFAC01224282B0CDF8CD
:1004000000E0034619460191FFF708FF40F2E8318A
:1004100000FB01F201990A601F490978C1F3031139
:10042000C8B21E4909180878C0B21A1D1968C1401F
:10043000116019490988C1F3022188B217490918C6
:100440000878C0B203F20802191D0968C1401160A2
:1004500011490988C1F3C22188B2104909180878E6
:10046000C0B203F20C02191D0968C14011600A49AB
:100470000988C1F3813188B2094909180978C8B2DD
:1004800003F2100203F20C010968B1FBF0F11160F4
:10049000DDF800E002B0704704100240D8290000E7
:1004A000002A000081B0194900EA01010846002233
:1004B0000EE0042022E0082020E010201EE0202092
:1004C0001CE040201AE0802018E040F2001015E007
:1004D0000F498842EDD00F498842ECD00E4988423E
:1004E000EBD00E498842EAD00D498842E9D00D4947
:1004F0008842E8D00C498842E7D010460B49096889
:1005000041EA000209490A6001B0704700FCFFFFA0
:1005100000080140000C014000100140001401409F
:1005200000180140001C014000200140181002404A
:1005300081B0CDF800E0012252B23E490A6000F2DB
:1005400068010B686FF0006103EA0102144603F0D2
:100550000061C90E0B4602F00041B1F1004F02D11B
:1005600035490A6801E035490A6804F47021090C2C
:100570000E464FF6FF7104EA01010D4604F44011E6
:10058000B1F5401F0DD16FF0706102EA01010E4616
:100590002A490A686FF070610A4028490A603246A9
:1005A00016E004F48011B1F5801F09D14FF003016A
:1005B000B140C94302EA010141F070610A4607E017
:1005C000610D090105FA01F1C9430A4042F0706268
:1005D0002BB1610D090105FA01F10A43FFE704F0AF
:1005E0000041B1F1004F02D113490A6001E0134903
:1005F0000A6040F2000A81464FEA8A0109EB0101D4
:100600000968B1F1FF3F10D009F134014FEA8A03C4
:10061000C91809680A4609EB03010968084611462A
:10062000FFF7A2FD0AF1010AE6E7DDF800E001B0FC
:10063000704700BF000342421C000140040001401B
:1006400083B0CDF800E003464FF0000026498B420E
:1006500006D126490C6826490A6826490A600BE03B
:1006600025498B4207D12549086825490A6821494F
:100670000A60044600E0044622490C60019402939B
:100680001846FFF743FE029B019C10B94FF6FF701E
:1006900025E00122196862F30821196003F21401B0
:1006A0000A68C2F3402111B14FF6FF7017E02546EA
:1006B0001C4615492046FFF717FE78B9114909680D
:1006C00059B135B906200B4C2468A0474FF6FF708E
:1006D00005E0691E08460546FFE7EAE70020DDF869
:1006E00000E003B0704700BF00540040B400002099
:1006F0001C0100201801002000580040B800002014
:1007000020010020BC0000200100030088B0CDF8CB
:1007100000E00E46554B98420DD1012464B2544B73
:100720001C60544C544B1C60544C554B1C60554C35
:10073000554B1C600FE0554B98420CD1012464B21C
:10074000534B1C60534C4C4B1C60534C4C4B1C602B
:10075000524C4D4B1C60019602901046FFF7E8FE8C
:100760000298019E031D1B689CB26FF03F0304EAD0
:1007700003039DB203AB01901846FFF73FFE0198BB
:10078000059F059C464BB4FBF3F399B29BB245EA37
:100790000304A4B2031D1C600024036864F3000377
:1007A000036000223F4B9E4212D87300B7FBF3F464
:1007B000A4B2042C02D204231C46FFE742EA04033D
:1007C0009AB200F220044B1C9BB2236091B23FE02E
:1007D000032306FB03F4B7FBF4F31FFA83F8192392
:1007E00006FB03F5B7FBF5F31FFA83F908FB04F4E6
:1007F00009FB05F33C1BFB1A9C4205D20323734300
:10080000B7FBF3F4A4B206E019237343B7FBF3F488
:10081000A4B244F4804440F6FF7304EA030313B91E
:1008200044F00104FFE744F400439BB21A4392B240
:1008300000F2200540F22C1301FB03F4A4B240F2B5
:10084000E833B4FBF3F39BB25B1C9BB22B6091B219
:1008500000F21C031960002303600124036864F3A1
:1008600000030360DDF800E008B07047005400406A
:10087000D4034242E115000024010020A11500002C
:10088000280100208D1600002C0100200058004097
:10089000D803424205150000F9150000F5160000C6
:1008A00040420F00A086010089B0CDF800E08346E9
:1008B00098B28C46BDF824100A9E04ACADF8041022
:1008C000ADF808002046FFF799FDBDF80800BDF817
:1008D0000410644CA34512D101256DB2624C256011
:1008E000624D634C2560634D634C2560634D644CE1
:1008F0002560644D644C2560079C039456E0634C6E
:10090000A34512D101256DB2614C2560614D584C53
:100910002560614D584C2560604D594C2560604DF7
:10092000594C2560069C039440E05E4CA34512D1CF
:1009300001256DB25C4C25605C4D4D4C25605C4DD5
:100940004D4C25605B4D4E4C25605B4D4E4C2560FB
:10095000069C03942AE0594CA34512D101256DB29F
:10096000574C2560574D424C2560574D424C2560F1
:10097000564D434C2560564D434C2560069C0394D0
:1009800014E0544CA34511D101256DB2524C2560A1
:10099000524D374C2560524D374C2560514D384CE7
:1009A0002560514D384C2560069C0394ADF8041029
:1009B000ADF808003046FFF7BBFDBDF80800BDF8F4
:1009C00004100BF1100500242C600BF110052C68AD
:1009D0000C432C600BF10C0500242C6018B140F482
:1009E000806080B2FFE70BF10C052C6804432C609B
:1009F0000BF10C060125346865F34D3434600BF1BE
:100A00000C060125346865F3C30434600BF10C0651
:100A10000125346865F3820434600BF11405002469
:100A20002C60039D192465434FEA8C04B5FBF4F751
:100A30006424B7FBF4F42601350964246C433C1BA1
:100A4000240104F232056424B5FBF4F404F00F042D
:100A500046EA04040BF10805A4B22C60DDF800E0BE
:100A600009B070470038014038034242B116000017
:100A7000300100205D1400003401002075140000D6
:100A8000380100208D1400003C010020004400408B
:100A9000C403424239160000A514000045140000AA
:100AA0001D15000000480040C80342421D1600000A
:100AB000ED140000BD140000D5140000004C0040EF
:100AC000CC0342425D1500002D1400007D13000090
:100AD0006513000000500040D0034242C5150000DD
:100AE00015140000E1130000AD13000081B001688F
:100AF000C1F3801001B0704782B0CDF800E0029ED3
:100B00004FF00005564CA04206D1564C2768564C73
:100B10002568564C25600AE0554CA04206D1554C3C
:100B20002768554C2568514C256000E02F46534CF2
:100B3000276000F210054C00A4B22C60B9460746AD
:100B4000904635461E464E493846FFF7CDFB88B9DC
:100B50004A4C24686CB1B9F1000F06D10420434C13
:100B60002468A0474FF6FF7076E0A9F101008146A6
:100B7000FFE7E8E70020019729463746019E7C1EE3
:100B8000A04226D206F2100508EB000424782C605F
:100B90003A4CD4F8009082460D463A493046FFF769
:100BA000A3FB88B9354C24686CB1B9F1000F06D1AC
:100BB00004202E4C2468A0474FF6FF704CE0A9F1AA
:100BC00001008146FFE7E8E70AF1010420462946D3
:100BD000D5E706F2100508EB000424782C60274CBA
:100BE00027680D4628493046FFF77EFB70B9234C35
:100BF000246854B137B904201C4C2468A0474FF630
:100C0000FF7029E0781E0746FFE7EBE7012D05D1CD
:100C10000125346865F3492434601CE001253468FB
:100C200065F308243460154C276835461749284673
:100C3000FFF75AFB78B9114C24685CB137B904202E
:100C40000A4C2468A0474FF6FF7005E07C1E204642
:100C50000746FFE7EAE70020DDF800E002B0704752
:100C600000540040B40000201C01002018010020A6
:100C700000580040B800002020010020BC000020E7
:100C800082000700800007008400070001000300C5
:100C900082B0CDF800E0CFB201469846029B4FF0FB
:100CA00000064FF00005C44CA14207D1C34CD4F854
:100CB0000090C34C2568C34C25600BE0C24CA14298
:100CC00007D1C24C2068C24C2568BE4C25608146C5
:100CD00000E0A946BF4CC4F80090F4E101F2100511
:100CE0007C00A4B244F00104A4B22C600196164624
:100CF0004F46019A01F214042568C5F3400464B913
:100D0000B44C246844B127B90320AE4C2468A047F2
:100D1000E2E1781E0746FFE7ECE700250C6865F383
:100D20008A240C6001F21404206800BF01F2180448
:100D30002468240440EA04042046012B05D101253F
:100D40000C6865F349240C6004E001250C6865F328
:100D500008240C609F4C25689146984637460E46FD
:100D60009D493046FFF7C0FA68B99A4C24684CB1E7
:100D700025B90320934C2468A047ADE16C1E2046A2
:100D80000546FFE7ECE707EB090506F210042468C7
:100D90002C70B8F1010F13D18E4C216830460568D4
:100DA000C5F340245CB98B4C24683CB121B90320C5
:100DB000844C2468A0478FE1491EFFE7EFE712E06B
:100DC000844C216830460568C5F300245CB9814C29
:100DD00024683CB121B903207A4C2468A0477BE108
:100DE000491EFFE7EFE777E101250C6865F38A24E8
:100DF0000C6001250C6865F3CB240C6001F2100532
:100E00007C00A4B244F00104A4B22C604F4601F26D
:100E100014042568C5F3400464B96E4C246844B1D9
:100E200027B90320674C2468A04755E1781E074680
:100E3000FFE7ECE701F21404206800BF01F2180498
:100E400024682404204300250C6865F38A240C6080
:100E5000604C276801F214042568C5F3800464B966
:100E60005C4C246844B127B90320564C2468A04741
:100E700032E1781E0746FFE7ECE7012B05D101259B
:100E80000C6865F349240C6004E001250C6865F3E7
:100E900008240C60951901F2100424682C70741C4D
:100EA000151901F2100424682C70012B14D1494C3F
:100EB00022680D68C5F3402464B9464C246844B1E7
:100EC00022B903203F4C2468A04705E1501E02468A
:100ED000FFE7EEE7084613E03E4C22680D68C5F3D5
:100EE000002464B93B4C246844B122B90320354C3A
:100EF0002468A047F0E0501E0246FFE7EEE70846F0
:100F00000025046865F3CB240460E5E001250C6846
:100F100065F38A240C6001F210057C00A4B244F051
:100F20000104A4B22C604646C846894617461D46B1
:100F30002A494846FFF7D8F978B9264C24685CB1AD
:100F4000B8F1000F04D103201E4C2468A047C3E071
:100F5000A8F101008046FFE7EAE70021A8464A46DB
:100F6000B1463B46A9F10304A14222D2194C25689F
:100F70008A4617461E4618493846FFF7B5F960B944
:100F8000144C246844B125B903200E4C2468A047B2
:100F9000A2E0681E0546FFE7EDE706EB0A0507F24B
:100FA000100424682C700AF10104214633463A46A5
:100FB000D8E7084C00F014B800540040B4000020FA
:100FC0001C0100201801002000580040B80000203B
:100FD00020010020BC0000204000030002000300AC
:100FE000276801930B4616464246019906F21404FF
:100FF0002568C5F3800464B9394C246844B127B925
:101000000320384C2468A04766E0781E0746FFE7B7
:10101000ECE70025346865F38A243460CD1806F2C5
:10102000100424682C70581C2D4C23681746024667
:1010300006F214042568C5F3800464B9284C2468BA
:1010400044B123B90320274C2468A04744E0581E2C
:101050000346FFE7ECE7012F07D10125346865F36C
:10106000492434601046324621E00125346865F396
:10107000082434601A4CD4F8008017460D461A49EB
:101080003046FFF731F978B9154C24685CB1B8F1F6
:10109000000F04D10320134C2468A0471CE0A8F1E2
:1010A00001008046FFE7EAE72946324638460D1838
:1010B00002F2100424682C70441C0D1902F2100472
:1010C00024682C7008E0B8F1010F3FF407AEB8F1C6
:1010D000020F3FF489AE19E7DDF800E002B0704777
:1010E000BC000020180100200100030081B0CDF8F1
:1010F00000E08CB21546774B00EA03031E46184603
:10110000FFF7D0F9B4F1FF0F0CD1734B9D4203D11F
:101110004FF033333360D9E0422D03D14FF04433E5
:101120003360D3E04FF6FF739C4214D16A4B9D426B
:1011300007D14FF033333360341D4FF03333236026
:10114000C4E0422D07D14FF044333360341D4FF0DB
:1011500044332360BAE00021002005F001030BB105
:1011600000211DE005F0020333B105F4C0730BB19B
:10117000082100E0042113E005F0040333B105F079
:1011800020030BB1042100E0002109E005F0080371
:1011900033B105F020030BB10C2100E00821FFE77B
:1011A0004E4B05EA03030BB1032009E005F400737D
:1011B0000BB1022004E005F480630BB10120FFE7CE
:1011C00005F00C030BB10143FFE704F0FF039BB2F2
:1011D000002B3BD0376800201FFA84F832462E4699
:1011E00008282CD24FF0010303FA00F408EA0403A4
:1011F000A34222D185004FF00F03AB40DB4307EA47
:10120000030401FA05F344EA03031D4606F481735F
:10121000B3F5817F05D102F214044FF0010383403E
:10122000236006F08203822B05D102F210044FF0F6
:101230000103834023602F46FFE7401CD0E717607F
:101240001FFA88F00F463146164602E00F4629463F
:10125000A0B2B0F1FF0F39D9331DD3F800800022BE
:10126000082A30D202F208044FF0010303FA04F412
:1012700000EA0403A34224D195004FF00F03AB40D2
:10128000DB4308EA030807FA05F348EA030801F418
:101290008173B3F5817F07D106F2140502F20804C9
:1012A0004FF00103A3402B6001F08203822B07D192
:1012B00006F2100502F208044FF00103A3402B6070
:1012C000FFE7521CCCE7331DC3F80080DDF800E0D7
:1012D00001B0704700FCFFFF140008000008080080
:1012E00081B00268C2F3401101B9FAE7011D096833
:1012F00088B201B07047FFFF81B00168C1F34010B0
:1013000001B0704781B0ADF800100146BDF8000093
:101310000B68C3F3C01202B9FAE70A1D106001B0EE
:101320007047FFFF81B000F20C02116000F208026A
:101330001368C3F3000202B9F8E700F20C02126866
:1013400090B201B07047FFFF81B0CDF800E081B2EC
:101350000348FFF7E7FFDDF800E001B0704700BF8A
:101360000030014081B0CDF800E00348FFF7BEFB3C
:10137000DDF800E001B07047004C004081B0CDF8CE
:1013800000E00348FFF7B8FFDDF800E001B0704768
:10139000004C004081B0CDF800E04FF0420289B22D
:1013A000FFF7A4FEDDF800E001B0704781B0CDF892
:1013B00000E00348FFF79AFBDDF800E001B070475A
:1013C0000050004081B0CDF800E00A4601460348D5
:1013D000FFF79CF9DDF800E001B0704700540040D1
:1013E00081B0CDF800E00348FFF786FFDDF800E0AC
:1013F00001B070470050004081B0CDF800E0044AD1
:1014000089B2FFF773FEDDF800E001B0704700BF5E
:101410001400080081B0CDF800E00348FFF760FF3A
:10142000DDF800E001B070470050004081B0CDF819
:1014300000E00348FFF754FFDDF800E001B070471B
:10144000004C004081B0CDF800E00348FFF754FFA6
:10145000DDF800E001B070470044004081B0CDF8F5
:1014600000E00348FFF73CFFDDF800E001B0704703
:101470000038014081B0CDF800E00348FFF73CFFA1
:10148000DDF800E001B070470038014081B0CDF8D0
:1014900000E00348FFF72AFBDDF800E001B07047E9
:1014A0000038014081B0CDF800E00348FFF718FF95
:1014B000DDF800E001B070470044004081B0CDF895
:1014C00000E00348FFF718FFDDF800E001B07047C7
:1014D0000048004081B0CDF800E00348FFF706FB6C
:1014E000DDF800E001B070470048004081B0CDF861
:1014F00000E00348FFF7F4FEDDF800E001B07047BC
:101500000048004081B0CDF800E00348FFF798F8AC
:10151000DDF800E001B070470058004081B0CDF820
:1015200000E00348FFF7E2FADDF800E001B07047A1
:101530000044004081B0CDF800E0019D2C4610B47D
:1015400008B493B28AB201460348FFF7ADF902B07E
:10155000DDF800E001B070470038014081B0CDF8FF
:1015600000E081B20348FFF7CDFEDDF800E001B0F6
:10157000704700BF004C004081B0CDF800E0019DF5
:101580002C4610B408B493B28AB201460348FFF760
:101590008BF902B0DDF800E001B070470044004074
:1015A00081B0CDF800E008B413460A46C1B2044841
:1015B000FFF76EFB01B0DDF800E001B0704700BF3F
:1015C0000054004081B0CDF800E081B20348FFF73D
:1015D00099FEDDF800E001B0704700BF0050004008
:1015E00081B0CDF800E00348FFF72AF8DDF800E00D
:1015F00001B070470054004081B0CDF800E008B45D
:1016000013460A46C1B20448FFF742FB01B0DDF8B9
:1016100000E001B0704700BF0058004081B0CDF835
:1016200000E081B20348FFF76DFEDDF800E001B095
:10163000704700BF0048004081B0CDF800E081B2A3
:101640000348FFF75FFEDDF800E001B0704700BF20
:101650000044004081B0CDF800E081B20348FFF7BC
:1016600061FEDDF800E001B0704700BF003C0040C3
:1016700081B0CDF800E081B20348FFF753FEDDF8FA
:1016800000E001B0704700BF0038004081B0CDF8E5
:1016900000E008B413460A46C1B20448FFF72CFA2A
:1016A00001B0DDF800E001B0704700BF0054004019
:1016B00081B0CDF800E081B20348FFF723FEDDF8EA
:1016C00000E001B0704700BF0038014081B0CDF8A4
:1016D00000E0019D2C4610B408B493B28AB20146D2
:1016E0000348FFF7E1F802B0DDF800E001B0704711
:1016F0000048004081B0CDF800E008B413460A4627
:10170000C1B20448FFF7F8F901B0DDF800E001B01C
:10171000704700BF0058004081B0FAB590EA020659
:101720004CBF4FF000464FF00006010243001B0E75
:1017300012BF41F000414FF000003BE0FF2B35D0DD
:101740005FEA02245FEA42055FEA156511BF44F0D3
:1017500000444FF0FF4030432CE0FF2D26D05B1BB0
:101760000020202764084908A14240EB000028BF60
:10177000091B7F1E04D0002918BF4900F4D1B840CE
:1017800010F0004F04BF4000B3F1010380302CBFC4
:101790005B1C40007F33DCBF4FF000000AE0FF2BF2
:1017A00004D2400A40EAC350304303E0FF27FF055C
:1017B00056EA0700BDE8FA4001B0704781B00A461A
:1017C000014600200D4611460A2805D20B1820229A
:1017D0001A70401C80B2F7E70B1800221A70401EE6
:1017E00080B20C180A23B5FBF3F203FB125230321D
:1017F00022700A22B5FBF2F2154602B902E0401E41
:1018000080B2EEE701B0704782B0CDF800E040F260
:101810000004ADF80440054C2468A047BDF904401D
:10182000044320B2DDF800E002B07047040100205C
:1018300081B0002808BF0FE002B54FF09E0202D42D
:10184000521E4000FCD580302CBF521C4000400A84
:1018500040EAC250BDE8024001B0704782B0CDF806
:1018600000E040F20004ADF80440044C2468A047B6
:10187000BDF90400DDF800E002B070470801002067
:10188000026806490A60011D0A6805490A6000F2FB
:1018900008010A6803490A60704700BF0001002080
:1018A000040100200801002081B0CDF800E00168AB
:1018B00008460449FFF786FD0020DDF800E001B08E
:1018C000704700BFA028000081B0CDF800E001689B
:1018D00008460449FFF776FD0020DDF800E001B07E
:1018E000704700BFA028000081B0CDF800E001786B
:1018F000CCB2A0B2034C2468A0470020DDF800E081
:1019000001B07047FC00002081B0CDF800E0A9E0F4
:10191000012905D140F220016548FFF73BFD04E0B5
:1019200040F220016248FFF767FDBBE0012905D1C5
:1019300040F208015F48FFF72DFD04E040F2080186
:101940005C48FFF759FDADE0012905D144F20001E3
:101950005948FFF71FFD04E044F200015648FFF725
:101960004BFD9FE0012905D140F200415148FFF7AE
:1019700011FD04E040F200414E48FFF73DFD91E0CB
:10198000012905D140F600014A48FFF703FD04E0B4
:1019900040F600014748FFF72FFD83E0012905D1FC
:1019A00041F200014348FFF7F5FC04E041F2000179
:1019B0004048FFF721FD75E0012905D141F2000102
:1019C0003D48FFF7E7FC04E041F200013A48FFF729
:1019D00013FD67E0012905D140F600013648FFF705
:1019E000D9FC04E040F600013348FFF705FD59E05B
:1019F000012905D140F240012F48FFF7CBFC04E05C
:101A000040F240012C48FFF7F7FC4BE0012905D1DB
:101A100040F220012848FFF7BDFC04E040F220011D
:101A20002548FFF7E9FC3DE0012905D140F24001DE
:101A30002248FFF7AFFC04E040F240011F48FFF7E7
:101A4000DBFC2FE0012905D140F280011B48FFF7A4
:101A5000A1FC04E040F280011848FFF7CDFC21E032
:101A6000012020E000283FF453AF01283FF45EAF8F
:101A700002283FF469AF03283FF474AF04283FF411
:101A80007FAF05283FF48AAF06283FF495AF0728BB
:101A9000A0D00828ACD00928B8D00A28C4D00B2878
:101AA000D0D0DDE70020DDF800E001B0704700BFD6
:101AB000000801400010014000140140000C0140EA
:101AC00081B0CDF800E0094902B440F2000340F2D1
:101AD000000240F20001FFF72DFD01B0044A054964
:101AE0000A600020DDF800E001B0704734280000F3
:101AF000B1160000FC00002081B0CDF800E00949DB
:101B000002B440F2000340F2000240F20001FFF78D
:101B100033FD01B0044A05490A600020DDF800E009
:101B200001B070470C29000039160000FC000020AD
:101B300081B0CDF800E0094902B440F2000340F260
:101B4000000240F20001FFF717FD01B0044A054909
:101B50000A600020DDF800E001B070470C290000A9
:101B600039160000FC00002081B0CDF800E00949E2
:101B700002B440F2000340F2000240F20001FFF71D
:101B8000A5FD01B0044A05490A600020DDF800E027
:101B900001B07047C82700001D160000FC0000209F
:101BA00081B010B5904208BF2AE040EA02044FEA33
:101BB0004404002C08BF23E0440004D1944201D423
:101BC000A41C012C1CE04FEA40044FEA1464FF2CD3
:101BD0000AD14FEA42044FEA1464FF2C04D14FEAC1
:101BE000D274B4EBD0340BE0002A06D4002802DC17
:101BF0000024012C04E0904202E0002848BF824209
:101C0000BDE8104001B0704781B0009101460098D6
:101C10000B461C465A1C15460346421C10461A78B1
:101C2000227022780AB12B46F3E7084601B07047CC
:101C300000F2300303F208010A6804490A6003F263
:101C40001C010A6802490A60704700BF0C010020AD
:101C50001001002081B0FAB590EA02064CBF4FF0A7
:101C600000464FF000064FEA00214FEA40031B0EEA
:101C700012BF41F000414FF000002CE0FF2B26D0B6
:101C80004FEA02244FEA42052D0E12BF44F00044F1
:101C90004FF000001FE0FF2D19D05B19A1FB045489
:101CA000002C5CBF64005B1E803424BF5B1C640896
:101CB0007E3BDCBF4FF000000DE0FF2B07D24FEA68
:101CC000142030F4000040EAC350304303E0FF2703
:101CD000FF0546EA0700BDE8FA4001B07047FFFF84
:101CE00082B0CDF800E040F20004ADF80440064CAC
:101CF0002468A047BDF9041041EA000000B2DDF8F5
:101D000000E002B0704700BF0001002081B0CDF8B4
:101D100000E0A9E0012905D140F210016548FFF774
:101D200039FB04E040F210016248FFF765FBBBE0BD
:101D3000012905D140F204015F48FFF72BFB04E0C5
:101D400040F204015C48FFF757FBADE0012905D1E3
:101D500042F200015948FFF71DFB04E042F2000186
:101D60005648FFF749FB9FE0012905D140F20041A9
:101D70005148FFF70FFB04E040F200414E48FFF7E7
:101D80003BFB91E0012905D140F600014A48FFF7ED
:101D900001FB04E040F600014748FFF72DFB83E01C
:101DA000012905D141F200014348FFF7F3FA04E0AD
:101DB00041F200014048FFF71FFB75E0012905D102
:101DC00040F201013B48FFF7E5FA04E040F201016F
:101DD0003848FFF711FB67E0012905D140F20041C7
:101DE0003648FFF7D7FA04E040F200413348FFF7E6
:101DF00003FB59E0012905D140F200212F48FFF7EC
:101E0000C9FA04E040F200212C48FFF7F5FA4BE054
:101E1000012905D140F200112848FFF7BBFA04E080
:101E200040F200112548FFF7E7FA3DE0012905D10E
:101E300040F240012248FFF7ADFA04E040F24001D1
:101E40001F48FFF7D9FA2FE0012905D140F28001A0
:101E50001B48FFF79FFA04E040F280011848FFF7A3
:101E6000CBFA21E0012020E000283FF453AF012805
:101E70003FF45EAF02283FF469AF03283FF474AF2C
:101E800004283FF47FAF05283FF48AAF06283FF4CB
:101E900095AF0728A0D00828ACD00928B8D00A28C8
:101EA000C4D00B28D0D0DDE70020DDF800E001B081
:101EB000704700BF000801400010014000140140BD
:101EC000000C014081B0CDF800E00E460021034631
:101ED000002804DA0121404200468FB201E0184692
:101EE0008FB23146FFF76AFC0B213446B8B20029A5
:101EF00008D963184A1E92B2A21812781A70491EA5
:101F000089B2F4E72022227070B1002081B220460D
:101F100042181278202A02D1491C89B2F8E74A1ED9
:101F200092B283182D221A70DDF800E001B07047DC
:101F300083B0CDF800E0002000F056F80DF1060067
:101F40000290012000F050F80299087001A8029058
:101F5000022000F049F80299087001A8401C029084
:101F6000032000F041F8029908700DF1060090F985
:101F70000000010201AA107841EA00000102501C91
:101F8000007841EA00000002FFF752FC034AFFF725
:101F9000C3FBDDF800E003B0704700BF00FF7F47E0
:101FA00044F67F77C0F212077F1EFDD100BF00BF4D
:101FB00000BF00BF00BF704782B0CDF800E001AAAB
:101FC0001070521C1170FFF78BFE01AB054A12789E
:101FD00019460123D0B20222FFF716FCDDF800E01B
:101FE00002B07047B200002082B0CDF800E001A935
:101FF0000870FFF775FE01AA0C4909780023C8B2E2
:1020000011460122FFF700FC0DF10502074909788E
:102010000123C8B211460122FFF720FC0DF1050192
:102020000978C8B2DDF800E002B07047B2000020C5
:1020300081B0CDF800E05FFA81F95FFA82FA0FE033
:102040005FFA8AF15FFA89F0FFF760FE0DE05FFA50
:102050008AF15FFA89F0FFF757FC06E0012004E0FF
:102060000028EDD00128F2D0F8E7DDF800E001B05B
:102070007047FFFF81B0CDF800E08B4609E058467D
:10208000FFF712FC0AE05846FFF71EFC06E00120AD
:1020900004E00028F3D00128F5D0F8E7DDF800E0EF
:1020A00001B0704783B0CDF800E0024610460D2223
:1020B0008DF808200A228DF809201FE0FFF714FC94
:1020C00023E002782AB10190FFF70EFC0198401C32
:1020D000F7E71AE002782AB10190FFF705FC0198B2
:1020E000401CF7E702AA1046FFF7FEFB0DF10902BC
:1020F0001046FFF7F9FB08E0062007E00029DDD0D5
:102100000129DED00229E5D0F6E70020DDF800E065
:1021100003B0704782B0CDF800E002460C460020C4
:10212000002149B20192019AB2F1FF3F06D1714AF2
:1021300011462046FFF768FD0320D7E0012501AADC
:10214000D21C127802F08002D2B272B101AAD31C62
:102150001A7882F080021A706A1CD3B22D22227083
:10216000621C1446DEB2A24601E0A246EEB2019A1B
:1021700032B9614A11465046FFF746FD0020B5E0EE
:10218000019AB2F1FF4F06D15C4A11465046FFF763
:102190003BFDF0B2AAE05FFA80F94FFA81F8019AAC
:1021A0004FF07E50FFF7FCFC40F2000000DD012004
:1021B00048B1019A5248FFF74DFD0190A8F101087E
:1021C0004FFA88F8EBE7019A4D48FFF7E9FC40F237
:1021D000000000DC012048B1019A4A48FFF73AFDAF
:1021E000019008F101084FFA88F8ECE7019A5200D3
:1021F000019201AAD21C12787F3AD0B201AAD31C54
:1022000001221A70019A8240019201AAD21C12780E
:1022100030328AF800200AF10100B8F1010F06DB24
:10222000B8F1060F03DC05465FFA89F103E02E22C0
:102230000270451C012106204FFA88F400B301AA60
:10224000D31C00221A70019A9300019AD2180192AD
:10225000019A5200019201AAD21C127830322A70DF
:102260006D1C51B9621E52B253B222B92E222A708D
:102270006D1C0121FFE75CB2FFE7401EC0B2DDE745
:10228000294660B24A1E1278302A01D1491EF9E768
:102290004A1E12782E2A01D1491EFFE710B365228B
:1022A0000A70491C002806DA2D220A70491C424295
:1022B00050B243B200E043B2D8B2DAB2092A07D929
:1022C0000A22B0FBF2F2D2B230320A70491CFFE7A8
:1022D0000A23B0FBF3F203FB1202D2B230320A70CF
:1022E000481C00E00846002202700020DDF800E0F3
:1022F00002B07047A8000020AC000020AE00002013
:1023000000002041CDCCCC3D81B0CDF800E00446AA
:10231000054B1A700846FFF7B3FA2046FFF788FC12
:10232000DDF800E001B07047B2000020A086010097
:1023300041F6FF27C0F2B7077F1EFDD100BF00BFE7
:1023400000BF00BF00BF704781B0CDF800E011E0D2
:102350000846FFF709FC16E00846FFF7CDFB12E040
:102360000846FFF7ADFB0EE00846FFF7E1FB0AE089
:10237000012008E00028EBD00128EDD02028EFD084
:102380003028F1D0F4E7DDF800E001B07047FFFF3E
:1023900081B01548006840F00101134801601349FD
:1023A0001348016010480168124801400E4801605E
:1023B0000D4801686FF4802001400B4801600C4813
:1023C00001686FF4FE000140094801600648016899
:1023D0006FF0A0500140044801604FF00001064832
:1023E000016001B0704700BF001002400000FFF024
:1023F00004100240FFFFF6FE2C10024081B04FF0A7
:1024000000094FF0000CBDEB0A0F04DCBDEB0B0F15
:1024100001DBD446EA464BF8049BBBEB0A0FFAD12A
:10242000BCEB0A0F05DDE246D9F800B00BF1040B56
:10243000F1E701B07047FFFF81B0CDF800E0012265
:1024400007210020FFF7F4FD002202210020FFF702
:10245000EFFD084801460020FFF70CFE42F28051D4
:102460000120FFF771FFFFF79BFDDDF800E001B0F1
:10247000704700BF2C23000081B0CDF800E060223F
:1024800012491348FFF740FF12480221FFF70AFEE6
:10249000B8212620FFF790FD07211320FFF78CFDC0
:1024A000B9212620FFF788FD0B480221FFF7FAFD2E
:1024B0000A480221FFF7F6FDFFF73AFFFFF738FF62
:1024C000FFF736FFDDF800E001B07047F4290000A7
:1024D00078290000000000202100002038000020A2
:1024E00081B0CDF800E00020FFF77EFD1C490860B8
:1024F000FFF756FDFFF71CFD1A490860FFF750FD76
:10250000174800681849FFF7DDFC18480121FFF75C
:10251000C9FD01211448FFF7C5FD15480221FFF749
:10252000C1FD104800681049FFF7F4FD1148012172
:10253000FFF7B8FD01210C48FFF7B4FD0E4802215A
:10254000FFF7B0FD0D480221FFF7ACFDFFF7F0FEED
:10255000FFF7EEFEFFF7ECFEDDF800E001B070479C
:10256000C0000020C4000020C80000205900002046
:1025700068000020700000207F00002087000020FD
:1025800081B01CF8019B0BF8019BBBEB0A0FF8D143
:1025900001B0704781B002490248016001B0704744
:1025A000401901001401002081B0FEE701B070471E
:1025B00000F00EF800F074FAFFF7ECFF00F022FADA
:1025C000FFF73AFFFFF758FFFFF78AFFFCE7FEE748
:1025D00081B0CDF800E0464A464B474C47494BF6A0
:1025E0008030814206D94648006840F002014448E4
:1025F000016011E045F6C050814206D940480068AC
:1026000040F001013E48016006E03D4801686FF07E
:10261000070001403A480160FFF7BAFE39480360FD
:1026200039480460394802EA00013948016002F083
:10263000010040B119463648006800F00200002849
:1026400000D1F8E700E0194602F4803040B10B46B3
:102650002F48006800F40030002800D1F8E700E0BF
:102660000B4602F0805068B12948006840F0805164
:10267000274801602648006800F00050002800D17B
:10268000F8E7FFE702F0806078B12148006840F089
:1026900080611F48016011461A461D48006800F01D
:1026A0000060002800D1F8E701E011461A4601F069
:1026B000807070B11648006840F080711448016065
:1026C00011461348006800F0007000B9F9E70A46A7
:1026D000FFE70C48006800F00C01900000F00C00CF
:1026E000814200D0F5E7DDF800E001B0704700BF9F
:1026F0008100010502841D0044060100401901000B
:1027000000200240041002402C100240FFFF0F0086
:10271000001002402D2D2D2D2D2D2D2D2D2D2D2D4B
:102720002D2D2D2D2D2D2D2D2D2D2D2D2D2D2D2DD9
:102730002D2D2D2D002020202020202020496E69C5
:102740007469616C697A6174696F6E002D2D2D2D2D
:102750002D2D2D2D2D2D2D2D2D2D2D2D2D2D2D2DA9
:102760002D2D2D2D2D2D2D2D2D2D2D2D0020546574
:102770006D70657261747572653A2000205B20B0DF
:1027800043205D002050726573737572653A202096
:10279000202000205B205061205D002D2D2D2D2D4F
:1027A0002D2D2D2D2D2D2D2D2D2D2D2D2D2D2D2D59
:1027B0002D2D2D2D2D2D2D2D2D2D2D004E614E002D
:1027C0003000494E4600FFFF38000000390000008D
:1027D000FFFFFFFF000000000000000000000000FD
:1027E00000000000000000000000000000000000E9
:1027F00000000000000000000000000018080000B9
:1028000018000000000000000000000000000000B0
:1028100000000000000000000000000000000000B8
:1028200000000000000000000000000000000000A8
:1028300030001408090000000A000000FFFFFFFF3D
:102840000000000000000000000000000000000088
:102850000000000000000000000000000000000078
:102860000000000000000000180800001800000030
:102870000000000000000000000000000000000058
:102880000000000000000000000000000000000048
:102890000000000000000000000000000400000034
:1028A0001600000017000000FFFFFFFF00000000FF
:1028B0000000000000000000000000000000000018
:1028C0000000000000000000000000000000000008
:1028D0000000000028080000280800000000000098
:1028E00000000000000000000000000000000000E8
:1028F00000000000000000000000000000000000D8
:102900000000000000000000020000003500000090
:1029100036000000FFFFFFFF000000000000000085
:1029200000000000000000000000000000000000A7
:102930000000000000000000000000000000000097
:10294000180800001800000000000000000000004F
:102950000000000000000000000000000000000077
:102960000000000000000000000000000000000067
:1029700000000000080000087D0200007102000055
:102980006502000089020000AD020000A102000003
:1029900095020000350200002902000041020000FB
:1029A000590200004D020000FFFFFFFFFFFFFFFF85
:1029B000FFFFFFFFFFFFFFFFFFFFFFFFFFFFFFFF27
:1029C000FFFFFFFFFFFFFFFFFFFFFFFFFFFFFFFF17
:1029D000FFFFFFFFFFFFFFFF0000000001020304F5
:1029E00001020304060708090000000000000000BF
:1029F00000000000E11500008D160000A115000088
:102A00000204060800B5DFF824B0DFF824A0DFF8E0
:102A100024C0FFF7B5FDDFF820B0DFF820A0DFF815
:102A200020C0FFF7ADFD00BD704700BF00000020D3
:102A3000B200002014270000B4000020C0000020D5
:102A4000E8290000FFFFFFFFFFFFFFFFFFFFFFFF81
:102A5000FFFFFFFFFFFFFFFFFFFFFFFFFFFFFFFF86
:102A6000FFFFFFFFFFFFFFFFFFFFFFFFFFFFFFFF76
:102A7000FFFFFFFFFFFFFFFFFFFFFFFFFFFFFFFF66
:102A8000FFFFFFFFFFFFFFFFFFFFFFFFFFFFFFFF56
:102A9000FFFFFFFFFFFFFFFFFFFFFFFFFFFFFFFF46
:102AA00000B5DFF810B0DFF810A0FFF7A7FC00BDFD
:102AB000704700BF0000002040010020FFFFFFFF23
:00000001FF
