:10000000E1EF15F00000000000EF00F0000000003C
:0A0010000000000000000000F3D71C
:0E001C0001013EB102D08B9801D08B881200FA
:0E002A0001013EB102D08B9601D08B861200F0
:0E00380001013EB102D08D9601D08D861200DE
:0E00460001013EB102D0899401D089841200DC
:0E00540001013EB102D08B9C01D08B8C1200BA
:0E00620001013EB102D08B9401D08B841200BC
:0E00700001013EB102D08B9A01D08B8A1200A2
:0E007E0001013EB102D08B9E01D08B8E12008C
:0E008C0001013EB102D08A9201D08A82120098
:0E009A0001013EB102D08D9401D08D84120080
:0E00A80001013EB102D08F9201D08F82120072
:0E00B60001013EB102D08F9401D08F84120060
:0E00C40001013EB102D08B9801D08B88120052
:0E00D20001013EB102D08B9601D08B86120048
:0E00E00001013EB102D08A9401D08A84120040
:0E00EE0001013EB102D08B9801D08B88120028
:0E00FC0001013EB102D08B9601D08B8612001E
:0E010A0001013EB102D08F9001D08F80120013
:0E01180001013EB102D08B9A01D08B8A1200F9
:0E01260001013EB102D08B9801D08B881200EF
:0E01340001013EB102D08B9801D08B881200E1
:0E01420001013EB102D08B9601D08B861200D7
:0E01500001013EB102D08B9201D08B821200D1
:0E015E0001013EB102D08B9A01D08B8A1200B3
:0E016C0001013EB102D08D9001D08D801200B5
:10017A000F0121B302D00000FBD73EC11CFF1200C1
:0E018A00ACB202D00000FCD73EC1ADFF1200A7
:0E01980001013EB102D08B9001D08B8012008D
:0E01A60001013EB102D0899001D08980120083
:0E01B40001013EB102D0899801D08988120065
:0E01C20001013EB102D0899201D08982120063
:0E01D00001013EB102D08B9601D08B86120049
:0E01DE0001013EB102D08D9201D08D8212003F
:0E01EC0001013EB102D08B9801D08B88120029
:0E01FA0001013EB102D08B9E01D08B8E12000F
:0E02080001013EB102D08A9001D08A8012001E
:0E02160001013EB102D08B9601D08B86120002
:0E02240001013EB102D08B9C01D08B8C1200E8
:10023200F250026EF29E0500FF6A0150FE6E0050FF
:08024200FD6E02BEF28E1200F7
:10024A0068B409D01F0E6614016E0150000A03E15A
:0A025A00010E006E01D0006A1200D0
:10026400C7B409D01F0EC514016E0150000A03E182
:0A027400010E006E01D0006A1200B6
:0A027E00000E82B6010E006E1200A1
:0A028800000E80B2010E006E12009D
:0A029200000E82BC010E006E120087
:0A029C00000E82B4010E006E120085
:0A02A600000E84B6010E006E120077
:0A02B000000E82BE010E006E120067
:0A02BA00000E81B2010E006E12006A
:0A02C400000E82B6010E006E12005B
:1002CE00AECF01F0ABA202D0AB98AB8801C000F06C
:0202DE0012000C
:0A02E000000E82BA010E006E12003B
:0A02EA00000EA4BA010E006E12000F
:0A02F400000E9EBA010E006E12000B
:0A02FE00000E82B8010E006E12001F
:0A030800000E82BA010E006E120012
:0A031200000E82B8010E006E12000A
:0A031C00000E82B8010E006E120000
:0A032600000E80B8010E006E1200F8
:10033000A19A38C16AFF63C039F164C03AF165C05F
:100340003BF166C03CF168A422D000016351641106
:10035000651166111BE0010139513A113B113C1145
:100360000EE1E1C0E1FFE2C0E2FF040EE66EDFC095
:1003700000F0E0C001F05DDF010E006E3BD0010E29
:100380000101395F000E3A5B3B5B3C5BDCD763C02D
:1003900039F164C03AF165C03BF166C03CF1A1BAE5
:1003A00022D0000163516411651166111BE0010147
:1003B00039513A113B113C110EE1E1C0E1FFE2C0BD
:1003C000E2FF040EE66EDFC000F0E0C001F031DFB6
:1003D000010E006E0FD0010E0101395F000E3A5B75
:1003E0003B5B3C5BDCD766BC02D0006A03D0668412
:0603F000020E006E120077
:0A03F600000E82B6010E006E120028
:0A040000000E84B2010E006E12001F
:0A040A00000E84B4010E006E120013
:1004140063C03AF164C03BF165C03CF166C03DF194
:10042400A19A6686A1BA20D00001635164116511B6
:10043400661119E001013A513B113C113D110CE1E7
:10044400E1C0E1FFE2C0E2FF030EE66EDFC000F0B0
:10045400E0C001F0ECDE08D0010E01013A5F000EAD
:100464003B5B3C5B3D5BDED701016ACF39F1385120
:10047400000A02E1668A01D0669AA19A668863C07E
:100484003AF164C03BF165C03CF166C03DF1A1BAEC
:1004940020D00001635164116511661119E0010156
:1004A4003A513B113C113D110CE1E1C0E1FFE2C0C6
:1004B400E2FF030EE66EDFC000F0E0C001F0B7DE3D
:1004C40008D0010E01013A5F000E3B5B3C5B3D5BD3
:0804D400DED739C100F012006F
:0404DC006684120020
:1004E00063C038F164C039F165C03AF166C03BF1D0
:1004F000668266A220D00001635164116511661105
:1005000019E00101385139113A113B110CE1E1C0F8
:10051000E1FFE2C0E2FF060EE66EDFC000F0E0C0E1
:1005200001F087DE08D0010E0101385F000E395B53
:080530003A5B3B5BDED71200D1
:0A053800000E82BC010E006E1200DE
:0A054200000E80B4010E006E1200DE
:10054C009E9638C1C9FF5BC039F15CC03AF15DC001
:10055C003BF15EC03CF1C7A421D05B505C105D1038
:10056C005E101BE0010139513A113B113C110EE1B7
:10057C00E5C0E1FFE6C0E2FF040EE66EE3C000F06A
:10058C00E4C001F050DE010E006E3AD0010E010104
:10059C00395F000E3A5B3B5B3C5BDDD75BC039F1EE
:1005AC005CC03AF15DC03BF15EC03CF19EB621D01F
:1005BC005B505C105D105E101BE0010139513A116B
:1005CC003B113C110EE1E5C0E1FFE6C0E2FF040E79
:1005DC00E66EE3C000F0E4C001F025DE010E006E13
:1005EC000FD0010E0101395F000E3A5B3B5B3C5BA7
:1005FC00DDD7C5BC02D0006A03D0C584020E006EE4
:02060C001200DA
:10060E005BC038F15CC039F15DC03AF15EC03BF1C0
:10061E00C582C5A21FD05B505C105D105E1019E044
:10062E000101385139113A113B110CE1E5C0E1FFDE
:10063E00E6C0E2FF060EE66EE3C000F0E4C001F095
:10064E00F1DD08D0010E0101385F000E395B3A5B17
:06065E003B5BDFD7120038
:04066400C584120037
:100668005BC03AF15CC03BF15DC03CF15EC03DF15E
:100678009E96C5869EB61FD05B505C105D105E10BE
:1006880019E001013A513B113C113D110CE1E5C063
:10069800E1FFE6C0E2FF030EE66EE3C000F0E4C04F
:1006A80001F0C3DD08D0010E01013A5F000E3B5B8B
:1006B8003C5B3D5BDFD70101C9CF39F13851000AF6
:1006C80002E1C58A01D0C59A9E96C5885BC03AF1F9
:1006D8005CC03BF15DC03CF15EC03DF19EB61FD0F1
:1006E8005B505C105D105E1019E001013A513B113E
:1006F8003C113D110CE1E5C0E1FFE6C0E2FF030E4D
:10070800E66EE3C000F0E4C001F08FDD08D0010E12
:1007180001013A5F000E3B5B3C5B3D5BDFD739C1B3
:0407280000F01200CB
:0A072C00000E86B0010E006E1200F0
:0A073600000E82B6010E006E1200E4
:0A074000000E82BA010E006E1200D6
:0A074A00000E86B2010E006E1200D0
:0A075400000E82B8010E006E1200C4
:10075E001DCF01F00F0122A302D02299228901C0E0
:04076E0000F0120085
:0A077200000E86B4010E006E1200A6
:0A077C00000E82BE010E006E120096
:0A078600000E81B4010E006E120097
:0A079000000EACB2010E006E120064
:0C079A00000E0F0121B3010E006E1200D2
:0A07A600000E80B0010E006E12007C
:0A07B000000E82B6010E006E12006A
:0A07BA00000E82B8010E006E12005E
:1007C40063C03AF164C03BF165C03CF166C03DF1E1
:1007D4000101386B396B3951120802E138518E0826
:1007E40008E331DD005201E004D00101384B392B1C
:1007F400F2D70101120E395D02E18F0E385D03E379
:100804007B0E006E26D0668066A022D00001635164
:100814006411651166111BE001013A513B113C1151
:100824003D110EE1E1C0E1FFE2C0E2FF050EE66E1C
:10083400DFC000F0E0C001F0FADC010E006E09D068
:10084400010E01013A5F000E3B5B3C5B3D5BDCD774
:04085400006A120024
:100858005BC03AF15CC03BF15DC03CF15EC03DF16C
:100868000101386B396B3951120802E138518E0891
:1008780008E3F4DC005201E004D00101384B392BC5
:10088800F2D70101120E395D02E18F0E385D03E3E4
:100898007B0E006E24D0C580C5A020D05B505C10B4
:1008A8005D105E101AE03A513B113C113D110EE10A
:1008B800E5C0E1FFE6C0E2FF050EE66EE3C000F02A
:1008C800E4C001F0B2DC010E006E09D0010E010196
:1008D8003A5F000E3B5B3C5B3D5BDED7006A120073
:0A08E800000E84B0010E006E120035
:0A08F200000E82B6010E006E120027
:0A08FC00000E82B8010E006E12001B
:0A090600000E82B0010E006E120018
:0A091000000E82B2010E006E12000C
:0A091A00000E81B0010E006E120005
:100924000B820BAE9CEF04F0036802680168006858
:080934000A360232FF0E120028
:0E093C00026A016A006A086A036A000E12006D
:10094A000B840BAEB0EF04F0010E036E026A016A6B
:0A095A00006A0A360232FF0E120096
:080964000AAE029E000E120013
:08096C000B6A0B86FF0E12005E
:100974008A0E0001F76F010EF86F3E0EF96F010E3B
:10098400FA6FCE0EFB6F020EFC6F000EFD6F000EB1
:10099400FE6FF40E0101016F020E026F000E036F71
:1009A400000E046F900E056F070E066F000E076FA2
:1009B400000E086FAC8A900EAB6E948E949C9EAA27
:0A09C40003D0AECF00F0FBD7120005
:1009CE00640E0001DB6F020EDC6F000EDD6F000E99
:1009DE00DE6F580EEF6F080EF06F000EF16F000E07
:1009EE00F26F0E0E01010D6F060E0E6F000E0F6FE1
:1009FE00000E106F680E156F060E166F380E176FFD
:100A0E00010E186F4C0E116F050E126F380E136F0C
:100A1E00010E146F640E096F060E0A6F000E0B6F37
:100A2E00000E0C6F949894968B988B96948894865F
:0A0A3E00C79EC79C380EC66E12005A
:100A480001012E6B2F6B9CC000F09DC001F019ECCA
:100A580001F000C02EF1000E01012F6F2EC100F031
:060A68002FC101F0120095
:100A6E007A0E0001F76F010EF86F3E0EF96F010E50
:100A7E00FA6F5E0EFB6F070EFC6F000EFD6F000E21
:100A8E00FE6FEA0E0101016F020E026F000E036F80
:100A9E00000E046F9A0E056F070E066F000E076F9D
:100AAE00000E086F0F01218B900E226F9884989282
:0C0ABE00A4AA03D01DCF00F0FBD712004B
:100ACA000CB0A7EF05F00CA24DEF06F00E6A000E6F
:100ADA000264BEEF05F0F00E0214D8A489EF05F007
:100AEA00023A01380F0B02260138F00B016E00386A
:100AFA000F0B01260038F00B006E08380F0B00268A
:100B0A000838F00B086E0E84D89002BEA2EF05F0EA
:100B1A0008360036013602360E2A02BEA2EF05F06A
:100B2A0008360036013602360E2A02BEA2EF05F05A
:100B3A0008360036013602360E2A0E50036443EF99
:100B4A0006F0035E0BBC08AE48EF06F0D880800EB4
:100B5A0008640030000E002201220222D8A048EFC9
:100B6A0006F0023201320032034A4DEF06F048EF36
:100B7A0006F001C002F000C001F008C000F0086AE7
:100B8A00000E0E860264F5EF05F0F00E0214D8A4EA
:100B9A00DDEF05F0023A01380F0B02260138F00B9F
:100BAA00016E00380F0B01260038F00B006E0E8420
:100BBA00D89002BEA2EF05F00036013602360E2AA0
:100BCA0002BEA2EF05F00036013602360E2A02BE38
:100BDA00A2EF05F00036013602360E2AA2EF05F022
:100BEA0001C002F000C001F0006A000E0E960E88E5
:100BFA00026422EF06F0F00E0214D8A40DEF06F0FC
:100C0A00023A01380F0B02260138F00B016E0E84EE
:100C1A00D89002BEA2EF05F0013602360E2A02BEB5
:100C2A00A2EF05F0013602360E2A02BEA2EF05F047
:100C3A00013602360E2AA2EF05F001C002F0016A5F
:100C4A00000E0E86026452EF06F0F00E0214D8A4CB
:100C5A0031EF06F0023A0E84D89002BEA2EF05F0F8
:100C6A0002360E2A02BEA2EF05F002360E2A02BE94
:100C7A00A2EF05F002360E2AA2EF05F0010E0C6E65
:100C8A005FDE55EF06F0020E0C6E67DE55EF06F0DA
:100C9A00040E0C6E42DE55EF06F0080E0C6E49DEAD
:020CAA00120036
:100CAC000101366B376B2FC134F130C135F12EC1D8
:100CBC0000F00036009092C0E1FF93C0E2FF00C04C
:100CCC00E6FF90C000F091C001F019EC01F000506B
:100CDC0001013613000E371331C100F032C101F09F
:100CEC00010E315F000E325B0050011018E092C013
:100CFC00E1FF93C0E2FF34C1E9FF35C1EAFFEECF5B
:100D0C00E6FF90C000F091C001F019EC01F000502A
:100D1C0001013613000E3713344B352BDDD733510D
:100D2C00000A06E194C000F095C001F019EC01F046
:100D3C0001013351010A06E198C000F099C001F09D
:0E0D4C0019EC01F036C100F037C101F01200C1
:100D5A000101366B376B2FC134F130C135F12EC129
:100D6A0000F000360090008092C0E1FF93C0E2FFDD
:100D7A0000C0E6FF90C000F091C001F019EC01F04C
:100D8A00005001013613000E3713010E315F000EB9
:100D9A00325B3151321116E0A2C0E1FFA3C0E2FF7B
:100DAA00010EE66EA0C000F0A1C001F019EC01F03E
:100DBA0034C1E1FF35C1E2FF00C0E6FF0101344B57
:100DCA00352BE3D7A2C0E1FFA3C0E2FFE66AA0C0C9
:100DDA0000F0A1C001F019EC01F034C1E1FF35C106
:100DEA00E2FF00C0E6FF01013351000A06E194C0A8
:100DFA0000F095C001F019EC01F001013351010A2C
:100E0A0006E198C000F099C001F019EC01F036C172
:080E1A0000F037C101F01200E5
:100E220028C12BF129C12CF12AC12DF10BD0A00E22
:100E3200C86ECCDD44D0280EC86EC8DD40D0040E8A
:100E4200006E3FD02BC1F6FF2CC1F7FF2DC1F8FF7A
:100E52000900F5CF01F00900F5CF02F00900F5CF46
:100E620003F00900F5CF04F00450000A08E1035032
:100E7200010A05E10250860A02E10150A00AD7E008
:100E82002BC1F6FF2CC1F7FF2DC1F8FF0900F5CFEA
:100E920001F00900F5CF02F00900F5CF03F00900D7
:100EA200F5CF04F00450000A08E10350060A05E1F8
:100EB20002501A0A02E10150800ABDE0C0D7000EBA
:040EC200006E1200AC
:100EC60028C12BF129C12CF12AC12DF10BD0A00E7E
:100ED600C86E7ADD44D0280EC86E76DD40D0040E8A
:100EE600006E3FD02BC1F6FF2CC1F7FF2DC1F8FFD6
:100EF6000900F5CF01F00900F5CF02F00900F5CFA2
:100F060003F00900F5CF04F00450000A08E103508D
:100F1600010A05E10250860A02E10150A00AD7E063
:100F26002BC1F6FF2CC1F7FF2DC1F8FF0900F5CF45
:100F360001F00900F5CF02F00900F5CF03F0090032
:100F4600F5CF04F00450000A08E10350060A05E153
:100F560002501A0A02E10150800ABDE0C0D7000E15
:040F6600006E120007
:100F6A0028C12AF129C12BF16ADDA4C02EF12A0E6B
:100F7A002F6F010E306F020E316F000E326F336B1E
:040F8A0090DE1200E3
:100F8E00300E01012825006E000E2921016E000E83
:100F9E002A21026E080E0024F66E000E0120F76E56
:100FAE00000E0220F86E0900F5CFEBF00900F5CF28
:100FBE00ECF00900F5CFEDF00900F5CFEEF01C0EC8
:100FCE000024F66E000E0120F76E000E0220F86E61
:100FDE000900F5CFE7F00900F5CFE8F00900F5CFED
:0A0FEE00E9F00900F5CFEAF0120067
:100FF80028C1F6FF29C1F7FF2AC1F8FF0900F5CF7C
:101008009CF00900F5CF9DF00900F5CF9EF009008E
:10101800F5CF9FF0040E01012825F66E000E292158
:10102800F76E000E2A21F86E0900F5CF94F009003A
:10103800F5CF95F00900F5CF96F00900F5CF97F0B8
:10104800080E2825F66E000E2921F76E000E2A21BB
:10105800F86E0900F5CF98F00900F5CF99F009006E
:10106800F5CF9AF00900F5CF9BF00C0E2825F66E07
:10107800000E2921F76E000E2A21F86E0900F5CF1F
:1010880090F00900F5CF91F00900F5CF92F0090032
:10109800F5CF93F0100E2825F66E000E2921F76E75
:1010A800000E2A21F86E0900F5CFA0F00900F5CF4F
:1010B800A1F00900F5CFA2F00900F5CFA3F01200C6
:1010C80021D0CF0EAF6EAC9451DC6BD0670EAF6EF3
:1010D800AC944CDC66D0CF0EAF6EAC8447DC61D0EC
:1010E800670EAF6EAC8442DC5CD0440EAF6EAC844D
:1010F8003DDC57D0220EAF6EAC8438DC52D0060EE1
:10110800006E59D00101000E006E2B1908E1005045
:101118002A1905E1120E291902E12851C00AD1E065
:10112800000E006E2B1908E100502A1905E1250E62
:10113800291902E12851800AC9E0000E006E2B1916
:1011480008E100502A1905E14B0E291902E128513E
:10115800000AC1E0000E006E2B1908E100502A19A0
:1011680005E1960E291902E12851000AB9E0000E9E
:10117800006E2B1908E100502A1905E1E10E291922
:1011880002E12851000AB1E02B51000A08E12A5176
:10119800010A05E12951C20A02E12851000AAAE020
:1011A800AED78A0E0001F36F010EF46F3E0EF56F95
:0811B800010EF66F006A12003F
:1011C00028C12BF129C12CF12AC12DF10DD0A00E7F
:1011D000C86EE7EC04F045D0280EC86EE7EC04F0CA
:1011E00040D0040E006E3FD02BC1F6FF2CC1F7FF9C
:1011F0002DC1F8FF0900F5CF01F00900F5CF02F08D
:101200000900F5CF03F00900F5CF04F00450000AFF
:1012100008E10350010A05E10250860A02E101508B
:10122000A00AD5E02BC1F6FF2CC1F7FF2DC1F8FFB6
:101230000900F5CF01F00900F5CF02F00900F5CF64
:1012400003F00900F5CF04F00450000A08E1035050
:10125000060A05E102501A0A02E10150800ABCE0C8
:08126000C0D7000E006E120061
:1012680027D0CF0EAF6EAC94BAEC04F070D0670EF6
:10127800AF6EAC94BAEC04F06AD0CF0EAF6EAC840B
:10128800BAEC04F064D0670EAF6EAC84BAEC04F02C
:101298005ED0440EAF6EAC84BAEC04F058D0220E87
:1012A800AF6EAC84BAEC04F052D0060E006E59D082
:1012B8000101000E006E2B1908E100502A1905E102
:1012C800120E291902E12851C00ACBE0000E006E67
:1012D8002B1908E100502A1905E1250E291902E108
:1012E8002851800AC4E0000E006E2B1908E1005056
:1012F8002A1905E14B0E291902E12851000ABDE01F
:10130800000E006E2B1908E100502A1905E1960E0F
:10131800291902E12851000AB6E0000E006E2B19C7
:1013280008E100502A1905E1E10E291902E12851C6
:10133800000AAFE02B51000A08E12A51010A05E131
:101348002951C20A02E12851000AA9E0AED78A0E43
:101358000001F36F010EF46F3E0EF56F010EF66F8C
:04136800006A120005
:10136C0027D0CF0EAF6EAC94BAEC04F070D0670EF1
:10137C00AF6EAC94BAEC04F06AD0CF0EAF6EAC8406
:10138C00BAEC04F064D0670EAF6EAC84BAEC04F027
:10139C005ED0440EAF6EAC84BAEC04F058D0220E82
:1013AC00AF6EAC84BAEC04F052D0060E006E59D07D
:1013BC000101000E006E2B1908E100502A1905E1FD
:1013CC00120E291902E12851C00ACBE0000E006E62
:1013DC002B1908E100502A1905E1250E291902E103
:1013EC002851800AC4E0000E006E2B1908E1005051
:1013FC002A1905E14B0E291902E12851000ABDE01A
:10140C00000E006E2B1908E100502A1905E1960E0A
:10141C00291902E12851000AB6E0000E006E2B19C2
:10142C0008E100502A1905E1E10E291902E12851C1
:10143C00000AAFE02B51000A08E12A51010A05E12C
:10144C002951C20A02E12851000AA9E0AED78A0E3E
:10145C000001F36F010EF46F3E0EF56F010EF66F87
:04146C00006A120000
:10147000F5C0E1FFF6C0E2FF28C1E9FF29C1EAFF9C
:10148000EECFE6FFF3C000F0F4C001F019EC01F07C
:04149000006A1200DC
:101494003ED00F0120870D0E1F6F040E1E6F218595
:1014A40037EC05F083D00F012087060E1F6F820EE4
:1014B4001E6F218537EC05F079D00F012087030ECC
:1014C4001F6F400E1E6F218537EC05F06FD00F01A2
:1014D4002087010E1F6FA00E1E6F218537EC05F0CB
:1014E40065D00F012087010E1F6F150E1E6F218519
:1014F40037EC05F05BD00F0120871F6B8A0E1E6F3F
:10150400218537EC05F052D0060E006E59D0000E3E
:10151400006E01012B1908E100502A1905E1120E91
:10152400291902E12851C00AB4E0000E006E2B19FB
:1015340008E100502A1905E1250E291902E1285174
:10154400800AB1E0000E006E2B1908E100502A1940
:1015540005E14B0E291902E12851000AAEE0000E04
:10156400006E2B1908E100502A1905E1960E29197D
:1015740002E12851000AABE0000E006E2B1908E1CD
:1015840000502A1905E1E10E291902E12851000A47
:10159400A8E02B51000A08E12A51010A05E129516A
:1015A400C20A02E12851000AA6E0AED77A0E000171
:1015B400F36F010EF46F3E0EF56F010EF66F006AC5
:0215C400120013
:1015C6000450000A12E10550000A0FE10650000A15
:1015D6000CE10750000A09E1FF0E006EFF0E016ED6
:1015E6007F0E026EFF0E036EA8D0086A096A0750C6
:1015F600D8B48EEF0BF00350D8B493EF0BF0025033
:1016060006180A6E028E068E0E6A02C008F001C027
:101616000CF000C00DF004500D5E0550D8A0053C3E
:101626000C5E0650D8A0063C085E086A0C6A0D6A75
:10163600D8A025EF0BF0D8900232013200320832E2
:10164600010E0E6E0750035ED8A032EF0BF07E0E31
:101656000E240326D8B098EF0BF038EF0BF07E0E71
:101666000E240326D8A09DEF0BF0180E0B6E0D3638
:101676000C3608360036013602360E360450005E49
:101686000550D8A0053C015E0650D8A0063C025E77
:1016960006340E120EA053EF0BF00D805EEF0BF02A
:1016A600045000260550D8B0053C01260650D8B097
:1016B600062802260D900B2E3AEF0BF084EF0BF066
:1016C600D8900036013602360E360450005E0550BC
:1016D600D8A0053C015E0650D8A0063C025E063442
:1016E6000E10010B0D26D8B00C2AD8B4082AD8A49F
:1016F60084EF0BF008320C320D32032AD8B498EF7F
:101706000BF00AAE089E0850026E0C50016E0D508A
:10171600006EA0EF0BF0010EB6EC04F0A0EF0BF09C
:10172600020E9EEC04F0A0EF0BF0040E92EC04F017
:0C173600A0EF0BF0080EA5EC04F0120070
:1017420059D0010129B102D0929001D092800F01AB
:10175200259176D0010129B102D0949001D09480D4
:101762006FD0010129B102D0969001D0968068D045
:10177200010129B102D0949601D0948661D0010171
:1017820029B102D0949801D094885AD0010129B18C
:1017920002D0949A01D0948A53D0010129B102D087
:1017A200949201D094824CD0010129B102D093903D
:1017B20001D0938045D0010129B102D0949E01D07D
:1017C200948E3ED0010129B102D0949C01D0948C18
:1017D20037D0010129B102D0949601D0948630D03D
:1017E200010129B102D0949801D0948829D0010E28
:1017F200006E28D001012851000AA3E02851010AF5
:10180200A9E02851020AADE02851030AB1E02851AB
:10181200040AB5E02851050AB9E02851060ABDE0DC
:101822002851070AC1E02851080AC5E02851090ACF
:10183200C9E028510A0ACDE028510B0AD1E0D7D7D6
:06184200000E006E120012
:1018480059D0010129B102D0929201D092820F01A0
:10185800259376D0010129B102D0929801D09288BF
:101868006FD0010129B102D0969201D0968268D03A
:10187800010129B102D0949601D0948661D001016A
:1018880029B102D0949801D094885AD0010129B185
:1018980002D0949A01D0948A53D0010129B102D080
:1018A800949401D094844CD0010129B102D0939230
:1018B80001D0938245D0010129B102D0949E01D074
:1018C800948E3ED0010129B102D0949C01D0948C11
:1018D80037D0010129B102D0949601D0948630D036
:1018E800010129B102D0949801D0948829D0010E21
:1018F800006E28D001012851000AA3E02851010AEE
:10190800A9E02851020AADE02851030AB1E02851A4
:10191800040AB5E02851050AB9E02851060ABDE0D5
:101928002851070AC1E02851080AC5E02851090AC8
:10193800C9E028510A0ACDE028510B0AD1E0D7D7CF
:06194800000E006E12000B
:10194E000050086E0150006E0250016E0350026E80
:10195E00036A0B6A0C6A9E0E036E0A6A020E0C6E06
:06196E0065EC05F012001B
:1019740028C129F124EC05F0A4C02EF1290E2F6F03
:10198400010E306F010E316F000E326F010E336F96
:1019940056EC06F0A4C02EF12A0E01012F6F010EA1
:1019A400306F010E316F000E326F336BADEC06F009
:0619B4002AC100F0120040
:1019BA00025006180E6E086A096A0B6A0350076419
:1019CA00D0EF0DF006500A6E068E028E03500B6E93
:1019DA000750036E000E0B6420EF0DF00B50075EEC
:1019EA00D8B4C1EF0DF0070E07648FEF0DF0075E54
:1019FA0000C008F001C000F002C001F0026A074E00
:101A0A00C1EF0DF0076464EF0DF0075E00C008F047
:101A1A0001C000F0016A074EC1EF0DF0076442EF02
:101A2A000DF0075E00C008F0006A074EC1EF0DF026
:101A3A00076429EF0DF00AC002F005C001F004C0E6
:101A4A0000F0086AEDEF0EF0030E076434EF0DF0B4
:101A5A00075E08380F0B086E074EC1EF0DF0D890DD
:101A6A000832074EC1EF0DF0D8900832074EC1EF89
:101A7A000DF0D8900832C1EF0DF0030E076453EF52
:101A8A000DF0075E08380F0B086E0038F00B0826B9
:101A9A0000380F0B006E074EC1EF0DF0D8900032E0
:101AAA000832074EC1EF0DF0D89000320832074EC7
:101ABA00C1EF0DF0D89000320832C1EF0DF0030EDD
:101ACA0007647BEF0DF0075E08380F0B086E0038CD
:101ADA00F00B082600380F0B006E0138F00B0026B9
:101AEA0001380F0B016E074EC1EF0DF0D89001328D
:101AFA0000320832074EC1EF0DF0D89001320032A1
:101B0A000832074EC1EF0DF0D89001320032083288
:101B1A00C1EF0DF0030E0764ACEF0DF0075E083855
:101B2A000F0B086E0038F00B082600380F0B006EFA
:101B3A000138F00B002601380F0B016E0238F00B4A
:101B4A00012602380F0B026E074EC1EF0DF0D89036
:101B5A000232013200320832074EC1EF0DF0D8903E
:101B6A000232013200320832074EC1EF0DF0D8902E
:101B7A000232013200320832096A000E0EAEB5EFA7
:101B8A000EF0081E001E011E021E082A0022012253
:101B9A000222B5EF0EF00750D8A4D6EF0DF0EDEF04
:101BAA000EF0096A02C00AF0028E068E0750035C24
:101BBA00076ED8B4A8EF0EF0070E076476EF0EF0A2
:101BCA00075E0450096E0550046E0650056E066ADB
:101BDA00074EA8EF0EF0070E07644BEF0EF0075EF4
:101BEA000450096E0550046E056A074EA8EF0EF000
:101BFA00070E076429EF0EF0075E0450096E046AA7
:101C0A00074EA8EF0EF0070E076410EF0EF00AC099
:101C1A0002F0EDEF0EF0030E07641BEF0EF0075E05
:101C2A0009380F0B096E074EA8EF0EF0D89009324B
:101C3A00074EA8EF0EF0D8900932074EA8EF0EF023
:101C4A00D8900932A8EF0EF0030E07643AEF0EF0AF
:101C5A00075E09380F0B096E0438F00B09260438A1
:101C6A000F0B046E074EA8EF0EF0D890043209321B
:101C7A00074EA8EF0EF0D89004320932074EA8EFAB
:101C8A000EF0D89004320932A8EF0EF0030E076462
:101C9A0062EF0EF0075E09380F0B096E0438F00B7D
:101CAA00092604380F0B046E0538F00B0426053894
:101CBA000F0B056E074EA8EF0EF0D89005320432CE
:101CCA000932074EA8EF0EF0D890053204320932D5
:101CDA00074EA8EF0EF0D890053204320932A8EF69
:101CEA000EF0030E076493EF0EF0075E09380F0B30
:101CFA00096E0438F00B092604380F0B046E0538F8
:101D0A00F00B042605380F0B056E0638F00B052676
:101D1A0006380F0B066E074EA8EF0EF0D890063263
:101D2A00053204320932074EA8EF0EF0D890063277
:101D3A00053204320932074EA8EF0EF0D890063267
:101D4A00053204320932086A000E0EAEB5EF0EF003
:101D5A00091E041E051E061E092A04220522062241
:101D6A00095008260450002205500122065002227A
:101D7A000EBECCEF0EF0D8A0DBEF0EF0023201322D
:101D8A0000320832033EDBEF0EF0E7EF0EF0D8B078
:101D9A00E1EF0EF0000E081E001E011E021E082AA8
:101DAA000022012202220A7EE1EF0EF0010E0C6EE1
:101DBA0065EC05F0EFEF0EF0020E0C6E65EC05F027
:101DCA00EFEF0EF0040E0C6E92EC04F0EFEF0EF053
:061DDA00000E0C6E120069
:101DE0000D6A086A0050D8B4000C04180A6E0ABEC6
:101DF0000D1E0B6A04AE02D0041E042A00AE02D0EF
:101E0000001E002A005004100A6E0ABE1FD00450A3
:101E1000085E003600340836045008260036060EE8
:101E20000C6E00340836045000B0085E00A008268E
:101E300000360C2EF6D700A008260BB015D00DAE3C
:101E4000000C001E002A081E082A000C04AE09D04F
:101E500000BE04D00050086E006AF1D7006A002A64
:101E6000000C001E0B2AD3D7082A0450085CD8A403
:0E1E7000E6D7086A002A00AEE2D7FF0C120087
:101E7E005DD0010129B102D0929401D092840F015C
:101E8E0025957AD0010129B102D0969601D0968679
:101E9E0073D0010129B102D0969401D096846CD0F2
:101EAE00010129B102D0949601D0948665D001012A
:101EBE0029B102D0949801D094885ED0010129B145
:101ECE0002D0949A01D0948A57D0010129B102D040
:101EDE00989001D0988050D0010129B102D09394EE
:101EEE0001D0938449D0010129B102D0989401D038
:101EFE0098840F01239540D0010129B102D0989208
:101F0E0001D098820F01239337D0010129B102D05D
:101F1E00949601D0948630D0010129B102D09498C4
:101F2E0001D0948829D0010E006E28D001012851CD
:101F3E00000A9FE02851010AA5E02851020AA9E0F3
:101F4E002851030AADE02851040AB1E02851050AD0
:101F5E00B5E02851060AB9E02851070ABDE028511C
:101F6E00080AC1E02851090AC7E028510A0ACDE043
:0E1F7E0028510B0AD1E0D7D7000E006E1200DA
:101F8C00086A096A000E076203644BEF10F00250F6
:101F9C0006180A6E075003267E0ED8A0DCEF0FF051
:101FAC00035ED8B050EF10F0E0EF0FF0035ED8A056
:101FBC0055EF10F0028E068E02C00EF001C00BF031
:101FCC0000C00DF000500402F4CF0CF001500502DB
:101FDC00F4CF00F0F3CF08F00402F3500C26F450C9
:101FEC000822000E00220D500502F3500C26F4506E
:101FFC000822000E002202500402F3500826F4506E
:10200C00002202500502016A000E0122F350002644
:10201C00F45001220D500602F3500826F450002211
:10202C00026A000E012202220B500602F350002617
:10203C00F4500122000E02220E500602F35001262B
:10204C00F450022202BE33EF10F00836003601368F
:10205C0002360306D8B455EF10F046EF10F0D880D6
:10206C00800E08640030000E002201220222D8A04B
:10207C0046EF10F0023201320032034A50EF10F0FA
:10208C000AAE029E000E58EF10F0010E9EEC04F00A
:10209C0058EF10F0020E92EC04F058EF10F0040E12
:0620AC00A5EC04F0120097
:1020B20028C104F029C105F004C002F005C003F0F4
:1020C200044A052A2AC100F02BC101F001012A4B62
:1020D2002B2B00C0E9FF01C0EAFF02C0E1FF03C0F1
:1020E200E2FFEECFE6FF02C0E9FF03C0EAFFEE52D5
:0E20F20001E0E2D728C100F029C101F0120080
:102100000A6A0350D8A40A800750D8A40A820A5049
:10211000D8B4E3EF10F0030AD8B49CEF10F00AB083
:1021200097EF10F006AEE1EF10F0DFEF10F002AE27
:10213000DFEF10F0E1EF10F00250800B0A6E029E0C
:102140000650800B069E0A18D8B4ADEF10F00A5066
:10215000D8B4DFEF10F0E1EF10F00750035CD8B413
:10216000B7EF10F0D8A0D3EF10F0D9EF10F0065071
:10217000025CD8B4C1EF10F0D8A0D3EF10F0D9EFC3
:1021800010F00550015CD8B4CBEF10F0D8A0D3EF1D
:1021900010F0D9EF10F00450005CD8B4E3EF10F069
:1021A000D8B0D9EF10F00A52D8B4E1EF10F0DFEF59
:1021B00010F00A52D8B4DFEF10F0E1EF10F0D88041
:0E21C0001200D8901200D880D88412001200AD
:1021CE001ED01AC128F11BC129F11CC12AF111EC34
:1021DE0007F020D01AC128F11BC129F11CC12AF128
:1021EE0063EC07F017D01AC128F11BC129F11CC1ED
:1021FE002AF1E0EC08F00ED0010E006E0BD00101BA
:10220E001951000ADEE01951010AE4E01951020ADF
:06221E00EAE0F2D7120015
:1022240017D01AC128F11BC129F1A1EC0BF01BD066
:102234001AC128F11BC129F124EC0CF014D01AC1E5
:1022440028F11BC129F119DE0ED0010E006E0BD04E
:1022540001011951000AE5E01951010AE9E0195197
:08226400020AEDE0F2D71200BE
:10226C002FD01AC128F11BC129F11CC12AF11DC1A3
:10227C002BF134EC09F032D01AC128F11BC129F131
:10228C001CC12AF11DC12BF164EC08F027D01AC136
:10229C0028F11BC129F11CC12AF11DC12BF14AECFB
:1022AC000AF01CD01AC128F11BC129F11CC12AF15A
:1022BC001DC12BF1B6EC09F011D0010E006E0ED041
:1022CC0001011951000ACDE01951010AD5E019514B
:0E22DC00020ADDE01951100AE5E0EFD712000A
:1022EA00520E0B6E2B0E0C6E000E0D6E0D2EFED7BF
:0C22FA000C2EFCD70B2EFAD700001200AF
:10230600260E0101286FBB0E296FB5EC07F0260ECD
:0E2316000101286FB90E296FB5EC07F0120017
:102324000101206B216B226B236B246B256B266BC5
:10233400276B010E286FBAEC0CF000C019F1020EE5
:102344000101286FBAEC0CF000C019F1030E010171
:10235400286FBAEC0CF000C01AF119C11CF1000E80
:1023640001011D6F1E6F1F6F1EC104F01DC103F01C
:102374001CC102F0016A01C01CF102C01DF103C0BE
:102384001EF104C01FF100500110056E02C006F0DA
:1023940003C007F004C008F0000E0612071208126A
:1023A40005C01CF106C01DF107C01EF108C01FF1D5
:1023B40007C003F006C002F005C001F0006A00C0C7
:1023C4001CF101C01DF102C01EF103C01FF11B511D
:1023D4000012000E01120212031200C01CF101C00F
:1023E4001DF102C01EF103C01FF1A7EC0CF000C0E8
:1023F40020F101C021F102C022F103C023F11BAF7F
:102404001AD024C100F025C101F026C102F027C171
:1024140003F0000E046E000E056E000E066E7E0EB6
:10242400076EDDEC0CF000C024F101C025F102C000
:1024340026F103C027F11BAD1AD024C100F025C139
:1024440001F026C102F027C103F0000E046E000E55
:10245400056E000E066E7D0E076EDDEC0CF000C0FE
:1024640024F101C025F102C026F103C027F11BAB02
:102474001AD024C100F025C101F026C102F027C101
:1024840003F0000E046E000E056E000E066E7C0E48
:10249400076EDDEC0CF000C024F101C025F102C090
:1024A40026F103C027F11BA91AD024C100F025C1CD
:1024B40001F026C102F027C103F0000E046E000EE5
:1024C400056E000E066E7B0E076EDDEC0CF000C090
:1024D40024F101C025F102C026F103C027F1000E4A
:1024E400046EFF0E056E7F0E066E8E0E076E20C103
:1024F40000F021C101F022C102F023C103F0E3EC9A
:102504000AF000C020F101C021F102C022F103C091
:1025140023F1000E046E000E056E320E066E850E5B
:10252400076EDDEC0CF000C020F101C021F102C007
:1025340022F103C023F124C104F025C105F026C112
:1025440006F027C107F0DDEC0CF000C020F101C05B
:0C25540021F102C022F103C023F11200AB
:102560000101236B246B19C11FF11AC120F11BC19A
:1025700021F11CC122F12251FF0A08E12151FF0A79
:1025800005E12051FF0A02E11F51FF0A0CE11DC1C4
:1025900028F11EC129F1670E2A6F000E2B6F89DD0D
:1025A000030E006EEFD1010E0001FF6F010121AF9C
:1025B00010D0800E2119006E00C021F10001FF2B08
:1025C0001DC1E1FF1EC1E2FF2D0EE66E01011D4B94
:1025D0001E2B000E006E221908E10050211905E1A2
:1025E0000050201902E11F51000A0BE11DC128F122
:1025F0001EC129F16B0E2A6F000E2B6F5ADD006A87
:10260000C1D12251FF0A08E12151000A05E1205100
:10261000000A02E11F51000A0CE11DC128F11EC190
:1026200029F15F0E2A6F000E2B6F43DDFFC000F013
:10263000A9D1000E046E000E056E000E066E7F0E10
:10264000076E1FC100F020C101F021C102F022C1BC
:1026500003F056DD010ED8B0000E006E00521BE0F4
:102660001FC100F020C101F021C102F022C103F01E
:10267000000E046E000E056E200E066E820E076EB2
:1026800085DC00C01FF101C020F102C021F103C0B0
:1026900022F12407CED7000E046E000E056E200E28
:1026A000066E820E076E1FC100F020C101F021C12D
:1026B00002F022C103F024DD000ED8B0010E006E3E
:1026C00000521BE01FC100F020C101F021C102F047
:1026D00022C103F0CD0E046ECC0E056E4C0E066EBC
:1026E0007B0E076E53DC00C01FF101C020F102C059
:1026F00021F103C022F1242BCED7FF0E1F15086E47
:10270000FF0E2015096E7F0E21150A6E000E221590
:102710000B6E08C004F009C005F00AC006F00BC03B
:1027200007F004360490053606360736000E1F15EE
:10273000006E000E2015016E000E2115026EFF0EB8
:102740002215036E00C01FF101C020F102C021F16B
:1027500003C022F104501F11006E05502011016EBC
:1027600006502111026E07502211036E00C01FF1A6
:1027700001C020F102C021F103C022F17F0E225DD1
:10278000006E00C000F1010E226F00C004F01FC1F6
:1027900000F020C101F021C102F022C103F0045079
:1027A00007E000360090013602360336FF0FF8D7F7
:1027B00000C01FF101C020F102C021F103C022F1CD
:1027C0001DC1E1FF1EC1E2FF2251300FE66E1D4B1D
:1027D0001E2B800E2419006E800E010A005C08E397
:1027E000800E060A006E800E2419005C01E30AD0F8
:1027F0001DC1E1FF1EC1E2FF2E0EE66E1D4B1E2B1A
:10280000010E236F060E006F0051000A54E0226B88
:102810001FC100F020C101F021C102F022C103F06C
:10282000003600900136023603360036009001363D
:10283000023603361F510026205101222151022267
:102840002251032200C01FF101C020F102C021F17A
:1028500003C022F11FC100F020C101F021C102F02C
:1028600022C103F00036009001360236033600C064
:102870001FF101C020F102C021F103C022F11DC1EE
:10288000E1FF1EC1E2FF2251300FE66E1D4B1E2BF1
:102890002351000A0EE124072451000A0AE11DC158
:1028A000E1FF1EC1E2FF2E0EE66E1D4B1E2B010E38
:1028B000236F0007A9D7FF0E1D25E96EFF0E1E210D
:1028C000EA6EEE50300A05E1010E1D5F000E1E5B40
:1028D000F2D7FF0E1D25E96EFF0E1E21EA6EEE50A7
:1028E0002E0A04E1010E1D5F000E1E5B2451000A3A
:1028F00043E01DC1E1FF1EC1E2FF650EE66E1D4B08
:102900001E2B800E2419006E800E000A005C0BE264
:102910001DC1E1FF1EC1E2FF2D0EE66E1D4B1E2BF9
:1029200024510008246F24C100F1800E090A006EB2
:10293000800E2419005C0FE20A0E046E00C100F044
:10294000F0EC0EF01DC1E1FF1EC1E2FF0050300FA0
:10295000E66E1D4B1E2B0A0E046E00C100F0F0EC5B
:102960000EF008C000F01DC1E1FF1EC1E2FF0050E3
:10297000300FE66E1D4B1E2B1DC1E1FF1EC1E2FF95
:06298000E66A006A120085
:10298600090E0B6E1E0E0C6EE40E0D6E0D2EFED78E
:0C2996000C2EFCD70B2EFAD7000012000C
:1029A20019C11CF11AC11DF10D0E0001FF6F0A0EB3
:1029B2000101006F3AD01CC128F11DC129F138EC88
:1029C2000AF03ED01CC1E9FF1DC1EAFFEE520AE047
:1029D2001CC128F11DC129F138EC0AF001011C4B80
:1029E2001D2BF0D72DD01CC1E9FF1DC1EAFFEE520D
:1029F2000AE01CC128F11DC129F138EC0AF00101DD
:102A02001C4B1D2BF0D70101FF0E286F000E296F02
:102A120038EC0AF0000E0101286F010E296F38EC24
:102A22000AF00ED0060E006E0CD001011B51000AF6
:102A3200C2E01B51010AC6E01B51020AD4E0F2D7E0
:042A4200006A120014
:102A46001FC1A4F01CC128F11DC129F11EC12AF124
:102A5600FCEC07F019C128F11AC129F11BC12AF1B2
:062A6600C7EC07F01200AE
:102A6C000101196B070E1A6F010E1B6F12EC11F09E
:102A7C000101196B020E1A6F1B6B12EC11F00101A4
:102A8C00196BBF0E1A6F2C0E1B6F000E1C6FE7EC30
:102A9C0010F0010E0101196F800E1A6F250E1B6FBD
:0E2AAC00000E1C6F1D6F36EC11F067DF12007C
:102ABA000900F5CFE6FF0006FBE10106F9E1120085
:102ACA004B0E0101196F2C0E1A6F000E1B6FAB0E05
:102ADA001C6F2C0E1D6F000E1E6F600E1F6FAEDF77
:102AEA000DDC0C0E0101286FBAEC0CF00050C40A80
:102AFA0009E17D0E0101196F000E1A6F020E1B6F9C
:102B0A004BDF08D06D0E0101196F000E1A6F020E0D
:102B1A001B6F42DF150E0101196F000E1A6F020EAC
:102B2A001B6F3ADF75EC11F075EC11F075EC11F0D2
:022B3A00120087
:102B3C0092EC11F000C0D7F001C0D8F002C0D9F06F
:102B4C0003C0DAF01ADFD7C019F1D8C01AF1D9C016
:102B5C001BF1DAC01CF1A50E01011D6F000E1E6FDA
:102B6C00F9DC4C0E196F000E1A6F010E1B6F13DF80
:102B7C00A50E0101196F000E1A6F010E1B6F0BDFF2
:102B8C00490E0101196F000E1A6F020E1B6F03DF45
:102B9C002F0E0101196F000E1A6F020E1B6FFBDE58
:102BAC0075EC11F075EC11F075EC11F075EC11F091
:062BBC0075EC11F012009F
:0E2BC20062EC16F052DF80DFB8DFFED7FFD7DF
:102CC40010EE15F07B0E006E010E016ED00EF66E46
:0E2CD4002B0EF76E000EF86E5DEC15F0120080
:102BD0002D2D2D2D2D2D2D2D2D2D2D2D2D2D2D2D25
:0A2BE0002D2D2D2D2D2D2D2D2D0056
:102BEA002D2D2D2D2D2D2D2D2D2D2D2D2D2D2D2D0B
:0A2BFA002D2D2D2D2D2D2D2D2D003C
:032C0400206D0040
:0F2C070020416C7469747564653A2020202000A8
:042C160000000000BA
:042C1A00494E4600D9
:042C1E0000000000B2
:042C22004E614E00B1
:022C260030007C
:102C2800202020202020202020204552524F5200D2
:102C380020202020416C74697475646520436C6998
:032C4800636B00BB
:102C4B00A6013E0198013E016C013E0142013E018D
:102C5B0034013E015E013E0150013E0108023E017E
:102C6B00FA013E0124023E0116023E01EC013E0137
:102C7B00A607000006090000E8080000B0070000E6
:102C8B00BA070000E0020000100900001A0900005A
:102C9B007C07000092020000C40200001203000037
:102CAB0058080000640600000E0600004C053801B1
:042CBB00680638016E
:042CBF00A0860100EA
:020000040030CA
:0E00000015137F7CF98B91FFFFC0FFE0FF40DE
:00000001FF
